S020000054504E322D43696E74615472616E73706F727461646F72612E73726563F0
S11300000C943B000C9458000C9458000C94670416
S11300100C9458000C9458000C9458000C945800FC
S11300200C9458000C9458000C945D040C945800E3
S11300300C944E040C9458000C9424040C94580012
S11300400C9458000C9458000C94FD030C94580024
S11300500C9458000C9458000C9458000C945800BC
S11300600C9458000C94580059016B0183019801B9
S1130070AD01BB01E00111241FBECFEFD8E0DEBF0C
S1130080CDBF11E0A0E0B1E0ECE1FAE002C00590E0
S11300900D92A031B107D9F723E0A0E1B1E001C08E
S11300A01D92A634B207E1F70E94A1040C940C053A
S11300B00C940000109221010895882329F0809166
S11300C0210180618093210108950F931F93CF93A1
S11300D0DF938C01EB01888180932101807C803C3B
S11300E049F4809121018F778F7B8093210181E0F6
S11300F0809310018091210183FF04C0877F8F7B4F
S1130100809321018091210181700E945D00809182
S113011021018883F8010995DF91CF911F910F91F7
S113012008950F931F93FC0190911001992371F08E
S113013010921001041B150B260B370B36952795CF
S11301401795079500831183228333831F910F91A1
S11301500895FC011582A081B181838191E0980FFB
S11301609383A80FB11D85E58C9384819381982393
S1130170A081B18181E0890F8383A90FB11D8EE431
S11301808C93848193819823A081B18181E0890F2C
S11301908383A90FB11D85E48C9384819381982373
S11301A0A081B18181E0890F8383A90FB11D82E50C
S11301B08C93848193819823A081B18181E0890FFC
S11301C08383A90FB11D4F5F4C938481938198233E
S11301D0A081B18181E0890F8383A90FB11D8AE3D6
S11301E08C93848193819823A081B18181E0890FCC
S11301F08383A90FB11D6C93948183819823938386
S113020095814927642786E3862785830895FC0121
S1130210A081B181838191E0980F9383A80FB11DD0
S11302206C93948183819823938385818627858326
S11302300895CF93DF93FC0110923E021BC0A0816E
S1130240B181838191E0980F9383A80FB11D8881B8
S11302508C93848193818923838380913E0291E0EE
S1130260980F90933E02DB01A80FB11D8C919581EC
S11302708927858380913E02EB01C80FD11D8881B7
S11302808111DDCF8581DF91CF910895DC01139633
S11302902C911397CDC01896EC9118974E2F50E0DF
S11302A04730510508F0B6C0FA01EC5CFF4F0C94DE
S11302B00605ED91FC911197E80FF11D80818535BC
S11302C009F0ABC081E018968C93189785E01996D5
S11302D08C931997A2C0ED91FC911197E80FF11D31
S11302E090819E3429F482E018968C93189795C0D7
S11302F0953509F492C018961C921897815012965D
S11303008C9312978AC0ED91FC911197E80FF11D1F
S11303109081953429F483E018968C9318977DC0C6
S113032018961C921897815012968C93129775C048
S1130330ED91FC911197E80FF11D9081923529F40C
S113034084E018968C93189768C018961C92189796
S1130350815012968C93129760C0ED91FC91119785
S1130360E80FF11D808117968C93179785E01896F6
S11303708C93189752C0ED91FC911197E80FF11DE1
S113038090819A33A9F496E018969C9318978F5FFE
S113039015969C911597892314968C931497179608
S11303A09C91179786E3892716968C93169735C0E8
S11303B018961C921897815012968C9312972DC000
S11303C017969C911797915017969C93179799237A
S11303D071F0ED91FC911197E80FF11D8081169653
S11303E09C911697892716968C93169716C0189683
S11303F01C921897ED91FC911197E80FF11D9081D3
S113040016968C911697981308C081E01A968C93CF
S11304101A9703C018961C92189712968C911297EB
S11304208F5F15969C911597892312968C9312973A
S113043012968C91129728132ECF08950F931F9321
S1130440CF93DF93EB01DC01ED91FC9111971496AE
S11304508C91E80FF11D6081603F31F0613F91F0B4
S1130460633A09F050C01DC042E060EFCE010E9423
S1130470A9006DE0CE010E9407016D81CE010E94AA
S113048007014DC04CE061EFCE010E94A90062E07B
S113049071E0CE010E9419016D81CE010E94070115
S11304A03EC08091150190911601A0911701B09161
S11304B018018093400290934102A0934202B093AA
S11304C0430245E063EACE010E94A90000E412E081
S11304D0F8016081CE010E940701D80111966C9148
S11304E0CE010E940701F8016281CE010E9407013A
S11304F0D80113966C91CE010E9407016D81CE0143
S11305000E9407010CC042E0CE010E94A9006FEFD7
S1130510CE010E9407016D81CE010E940701DF9187
S1130520CF911F910F910895FC0175836483168206
S1130530089578946091220170912301809124019F
S113054090912501F89408950F931F93CF93DF930F
S1130550EC018E8181110AC081E08E830E94990290
S1130560688379838A839B8380E019C00E949902FF
S1130570088119812A813B81AB01BC01401B510BCD
S1130580620B730B8C819D81A0E0B0E04817590782
S11305906A077B0718F01E8281E001C080E0DF91CA
S11305A0CF911F910F9108950F931F93CF93DF93D2
S11305B0EC018B018A85882321F01A86CE010E94E2
S11305C01E0287E392E00E94A402882349F08885F2
S11305D0882331F0898581508987811101C018866B
S11305E09A818B81981719F0CE010E944601D80197
S11305F012968C91129713969C9113978917D1F0A8
S11306009091C00095FF16C0ED91FC91119791E077
S1130610980F12969C931297E80FF11D8081809396
S1130620C60014968C91149712969C911297892364
S113063012968C93DF91CF911F910F910895CF92D1
S1130640DF92EF92FF928091450384FF07C080916F
S113065045038F7E809345031092440280914402A7
S1130660813001F128F0823049F1833081F13CC0BE
S113067085B1826085B9809184009091850044960B
S113068090938B0080938A000E94990260931101D9
S113069070931201809313019093140184E080936A
S11306A0440222C08091450380648093450385B150
S11306B08D7F85B984E08093440216C0E1E8F0E0C0
S11306C080818F7B808384E0809344020DC080917D
S11306D04503806880934503E1E8F0E0808180640D
S11306E0808384E080934402C0901101D090120171
S11306F0E0901301F09014010E949902C61AD70ADF
S1130700E80AF90A85E6C816D104E104F10428F0E0
S113071080914503886080934503FF90EF90DF90BC
S1130720CF9008958EEF8093C00088E98093C10034
S113073086E08093C20080E18093C4001092C500DB
S1130740089582E084BD93E095BD16BC97E095BB07
S113075099EF97BD80936E000895109285001092D2
S113076084001092800082EC8093810084E2809364
S11307706F0086B386BB089584B18B7F84B985B13D
S1130780846085B98BB381608BBBE8E6F0E080813F
S113079081608083EBE6F0E080818460808308954B
S11307A080910101811108C080914503826080938A
S11307B045038AE08093010108958091000181112D
S11307C008C0809145038160809345038AE080934B
S11307D000018091450381FF0FC080910001815089
S11307E080930001809145038D7F80934503809120
S11307F045038E7F8093450308951F920F920FB691
S11308000F9211248F939F93AF93BF93EF93FF9312
S1130810E6E2F2E0A081B181838191E0980F9383B5
S1130820A80FB11D8091C6008C9395818381892383
S11308308383FF91EF91BF91AF919F918F910F901F
S11308400FBE0F901F9018951F920F920FB60F9224
S113085011248F939F93AF93BF9380912201909122
S11308602301A0912401B09125010196A11DB11D80
S11308708093220190932301A0932401B093250136
S113088080910101815080930101BF91AF919F91AB
S11308908F910F900FBE0F901F9018951F920F927B
S11308A00FB60F9211248F9381E0809344028F91AD
S11308B00F900FBE0F901F9018951F920F920FB6B6
S11308C00F9211240F900FBE0F901F9018951F9236
S11308D00F920FB60F9211248F939F93AF93BF93F0
S11308E01A9B12C082E0809344028091840090910C
S11308F08500A0E0B0E080931D0190931E01A093B9
S11309001F01B093200114C085B1806285B983E0D2
S1130910809344028091840090918500A0E0B0E02F
S11309208093190190931A01A0931B01B0931C01A9
S1130930BF91AF919F918F910F900FBE0F901F9019
S11309401895F894E6E2F2E086E291E091838083E0
S11309501282138210868FEF85831286E1E3F2E020
S113096025E432E03183208312821382848310923F
S11309704503109222011092230110922401109237
S1130980250184B1806284B984B1826084B985B15F
S11309908F7D85B985B18D7F85B90E94A1030E94A1
S11309A0AD030E9492030E94BC030E945A0084E09B
S11309B0809344026AE070E087E392E00E9494022C
S11309C078940E94D0030E94DD0365E473E08FE114
S11309D093E00E9465000091190110911A01209181
S11309E01B0130911C0140911D0150911E01609129
S11309F01F017091200185E191E00E94910061E363
S1130A0072E086E292E00E94D402DBCFEE0FFF1F79
S10F0A100590F491E02D0994F894FFCFB8
S1130A1C0A0A45583130303932337630310A000005
S9030000FC
