S020000054504E322D43696E74615472616E73706F727461646F72612E73726563F0
S11300000C943B000C9458000C9458000C94580029
S11300100C9458000C9458000C9458000C945800FC
S11300200C9458000C9458000C94E4030C9458005D
S11300300C94D2030C9458000C94A8030C9458000C
S11300400C9458000C9458000C9481030C945800A0
S11300500C9458000C9458000C9458000C945800BC
S11300600C9458000C9458000A011C0134014901F5
S11300705E016C01910111241FBECFEFD8E0DEBFF9
S1130080CDBF11E0A0E0B1E0ECEFF8E002C00590D4
S11300900D92A031B107D9F723E0A0E1B1E001C08E
S11300A01D92A734B207E1F70E9428040C947C0443
S11300B00C940000FC011582A081B181838191E040
S11300C0980F9383A80FB11D85E58C938481938148
S11300D09823A081B18181E0890F8383A90FB11D89
S11300E08EE48C93848193819823A081B18181E0F3
S11300F0890F8383A90FB11D85E48C938481938137
S11301009823A081B18181E0890F8383A90FB11D58
S113011082E58C93848193819823A081B18181E0CD
S1130120890F8383A90FB11D4F5F4C938481938101
S11301309823A081B18181E0890F8383A90FB11D28
S11301408AE38C93848193819823A081B18181E097
S1130150890F8383A90FB11D6C93948183819823A4
S1130160938395814927642786E3862785830895A9
S1130170FC01A081B181838191E0980F9383A80F42
S1130180B11D6C9394818381982393838581862701
S113019085830895CF93DF93FC01109240021BC026
S11301A0A081B181838191E0980F9383A80FB11D41
S11301B088818C93848193818923838380914002F5
S11301C091E0980F90934002DB01A80FB11D8C9130
S11301D095818927858380914002EB01C80FD11D49
S11301E088818111DDCF8581DF91CF910895DC0174
S11301F013962C911397CDC01896EC9118974E2F07
S113020050E04730510508F0B6C0FA01EC5CFF4FEE
S11302100C947604ED91FC911197E80FF11D808107
S1130220853509F0ABC081E018968C93189785E06A
S113023019968C931997A2C0ED91FC911197E80F30
S1130240F11D90819E3429F482E018968C931897BE
S113025095C0953509F492C018961C921897815050
S113026012968C9312978AC0ED91FC911197E80F26
S1130270F11D9081953429F483E018968C93189796
S11302807DC018961C921897815012968C931297E1
S113029075C0ED91FC911197E80FF11D9081923595
S11302A029F484E018968C93189768C018961C92C9
S11302B01897815012968C93129760C0ED91FC911F
S11302C01197E80FF11D808117968C93179785E09D
S11302D018968C93189752C0ED91FC911197E80FE2
S11302E0F11D90819A33A9F496E018969C9318977F
S11302F08F5F15969C911597892314968C93149768
S113030017969C91179786E3892716968C931697D0
S113031035C018961C921897815012968C93129798
S11303202DC017969C911797915017969C931797E9
S1130330992371F0ED91FC911197E80FF11D8081E3
S113034016969C911697892716968C93169716C025
S113035018961C921897ED91FC911197E80FF11DD6
S1130360908116968C911697981308C081E01A967E
S11303708C931A9703C018961C92189712968C9116
S113038012978F5F15969C911597892312968C93DB
S1130390129712968C91129728132ECF08950F93CB
S11303A01F93CF93DF93EB01DC01ED91FC91119747
S11303B014968C91E80FF11D6081603F31F0613F2C
S11303C091F0633A09F050C01DC042E060EFCE01E5
S11303D00E945A006DE0CE010E94B8006D81CE01EA
S11303E00E94B8004DC04CE061EFCE010E945A005B
S11303F062E071E0CE010E94CA006D81CE010E94CC
S1130400B8003EC08091100190911101A091120199
S1130410B09113018093420290934302A09344024B
S1130420B093450245E063EACE010E945A0002E41B
S113043012E0F8016081CE010E94B800D801119643
S11304406C91CE010E94B800F8016281CE010E9435
S1130450B800D80113966C91CE010E94B8006D814A
S1130460CE010E94B8000CC042E0CE010E945A00A6
S11304706FEFCE010E94B8006D81CE010E94B800DA
S1130480DF91CF911F910F91089580910101811106
S113049006C081E0809323018AE0809301010895DE
S11304A080910001811107C081E0809322018AE0DC
S11304B080930001089590912301913039F4815083
S11304C08093000110922201109223010895FC01EF
S11304D075836483168208957894609124017091E1
S11304E025018091260190912701F89408950F9396
S11304F01F93CF93DF93EC018E8181110AC081E0B9
S11305008E830E946C02688379838A839B8380E054
S113051019C00E946C02088119812A813B81AB01B8
S1130520BC01401B510B620B730B8C819D81A0E0BD
S1130530B0E0481759076A077B0718F01E8281E06C
S113054001C080E0DF91CF911F910F9108950F9327
S11305501F93CF93DF93EC018B018A85882321F0CD
S11305601A86CE010E94CF0189E392E00E947702AD
S1130570882349F08885882331F0898581508987CB
S1130580811101C018869A818B81981719F0CE01C8
S11305900E94F700D80112968C91129713969C91A1
S11305A013978917D1F09091C00095FF16C0ED9173
S11305B0FC91119791E0980F12969C931297E80F73
S11305C0F11D80818093C60014968C911497129625
S11305D09C911297892312968C93DF91CF911F914E
S11305E00F9108950F931F9380911401882341F173
S11305F080911501882321F180911A0190911B01AA
S1130600A0911C01B0911D0140911E0150911F0148
S11306106091200170912101841B950BA60BB70BEF
S1130620B695A7959795879580931001909311019E
S1130630A0931201B09313011092140110921501AA
S11306400E946C020091160110911701209118016B
S113065030911901DC01CB01801B910BA20BB30B70
S113066085369105A105B10510F0109214011F9172
S11306700F910895809122018823C1F08091140183
S1130680811114C085B1826085B9EAE8F0E0808107
S113069091814496918380830E946C026093160139
S11306A070931701809318019093190108958EEFA8
S11306B08093C00088E98093C10086E08093C200E3
S11306C080E18093C4001092C500089582E084BD47
S11306D093E095BD16BC97E095BB99EF97BD8093C9
S11306E06E0008951092850010928400109280008C
S11306F082EC8093810084E280936F0086B386BB92
S113070008951F920F920FB60F9211248F939F9307
S1130710AF93BF93EF93FF93E8E2F2E0A081B1813E
S1130720838191E0980F9383A80FB11D8091C60037
S11307308C939581838189238383FF91EF91BF916A
S1130740AF919F918F910F900FBE0F901F901895AE
S11307501F920F920FB60F9211248F939F93AF9312
S1130760BF938091240190912501A0912601B0911D
S113077027010196A11DB11D8093240190932501A9
S1130780A0932601B09327018091010181508093A9
S11307900101BF91AF919F918F910F900FBE0F9068
S11307A01F9018951F920F920FB60F9211248F93DA
S11307B081E08093140185B18D7F85B98F910F906D
S11307C00FBE0F901F9018951F920F920FB60F92A5
S11307D011248F939F93AF93BF93EF93FF938091D3
S11307E0810086FF14C08091860090918700A0E06C
S11307F0B0E080931E0190931F01A0932001B09359
S11308002101E1E8F0E080818F7B808316C0809134
S1130810860090918700A0E0B0E080931A01909345
S11308201B01A0931C01B0931D0181E0809315016D
S1130830E1E8F0E0808180648083FF91EF91BF91D3
S1130840AF919F918F910F900FBE0F901F901895AD
S1130850F894E8E2F2E088E291E0918380831282E6
S1130860138210868FEF8583A3E3B2E026E432E09F
S113087011963C932E9312961C92129713961C92E7
S1130880139714968C9310924603128610922401A7
S113089010922501109226011092270184B18062E2
S11308A084B984B1826084B985B18F7D85B985B1FD
S11308B08D7F85B90E9466030E9472030E945703CC
S11308C078946AE070E089E392E00E9467020E94F3
S11308D045020E9450020E943A030E94F20263E31E
S11308E072E088E292E00E94A702F1CFEE0FFF1FB0
S10F08F00590F491E02D0994F894FFCFDA
S11308FC0A0A45583130303932337630310A000027
S9030000FC
