S020000054504E322D43696E74615472616E73706F727461646F72612E73726563F0
S11300000C943B000C9458000C9458000C94580029
S11300100C9458000C9458000C9458000C945800FC
S11300200C9458000C9458000C9422040C9458001E
S11300300C9413040C9458000C94E9030C94580089
S11300400C9458000C9458000C94C2030C9458005F
S11300500C9458000C9458000C9458000C945800BC
S11300600C9458000C9458009B01AD01C501DA01B1
S1130070EF01FD01220211241FBECFEFD8E0DEBF45
S1130080CDBF11E0A0E0B1E0EEE3F9E002C00590DD
S11300900D92A031B107D9F723E0A0E1B1E001C08E
S11300A01D92AF33B207E1F70E944B040C949D04F8
S11300B00C94000010921A010895882329F080916D
S11300C01A01806180931A0108950F931F93CF93AF
S11300D0DF938C01EB01888180931A0181700E9467
S11300E05D0080911001882341F080911A018F777F
S11300F08F7B80931A011092100180911A01807CE9
S1130100803C19F481E08093110180911A01888365
S1130110F8010995DF91CF911F910F910895EF9206
S1130120FF920F931F93E0911101EE2391F010922F
S11301301101E1E0E093100179018A01E61AF70A5E
S1130140080B190BC801B7019695879577956795A4
S113015003C060E070E0CB011F910F91FF90EF901E
S1130160089580913E0384FD10923D0280913D02EA
S1130170813089F028F08230B9F08330D9F00895C5
S113018085B1826085B9EAE8F0E080819181449686
S1130190918380831CC080913E03806480933E03DE
S11301A085B18D7F85B913C0E1E8F0E080818F7B54
S11301B080830DC080913E03806880933E03E1E814
S11301C0F0E080818064808385B1806285B98FEF9F
S11301D080933D020895FC011582A081B181838141
S11301E091E0980F9383A80FB11D85E58C938481CA
S11301F093819823A081B18181E0890F8383A90F22
S1130200B11D8EE48C93848193819823A081B18164
S113021081E0890F8383A90FB11D85E48C938481C8
S113022093819823A081B18181E0890F8383A90FF1
S1130230B11D82E58C93848193819823A081B1813F
S113024081E0890F8383A90FB11D4F5F4C93848193
S113025093819823A081B18181E0890F8383A90FC1
S1130260B11D8AE38C93848193819823A081B18109
S113027081E0890F8383A90FB11D6C9394818381DD
S11302809823938395814927642786E3862785836A
S11302900895FC01A081B181838191E0980F93833B
S11302A0A80FB11D6C9394818381982393838581D6
S11302B0862785830895CF93DF93FC01109237023C
S11302C01BC0A081B181838191E0980F9383A80F13
S11302D0B11D88818C938481938189238383809148
S11302E0370291E0980F90933702DB01A80FB11DFC
S11302F08C9195818927858380913702EB01C80F02
S1130300D11D88818111DDCF8581DF91CF91089541
S1130310DC0113962C911397CDC01896EC91189785
S11303204E2F50E04730510508F0B6C0FA01EC5C9E
S1130330FF4F0C949704ED91FC911197E80FF11D78
S11303408081853509F0ABC081E018968C931897AD
S113035085E019968C931997A2C0ED91FC911197A1
S1130360E80FF11D90819E3429F482E018968C9355
S1130370189795C0953509F492C018961C92189751
S1130380815012968C9312978AC0ED91FC9111972B
S1130390E80FF11D9081953429F483E018968C932D
S11303A018977DC018961C921897815012968C93BA
S11303B0129775C0ED91FC911197E80FF11D908192
S11303C0923529F484E018968C93189768C018968F
S11303D01C921897815012968C93129760C0ED91DD
S11303E0FC911197E80FF11D808117968C93179754
S11303F085E018968C93189752C0ED91FC91119753
S1130400E80FF11D90819A33A9F496E018969C9315
S113041018978F5F15969C911597892314968C9342
S1130420149717969C91179786E3892716968C93B1
S1130430169735C018961C921897815012968C9373
S113044012972DC017969C911797915017969C93CD
S11304501797992371F0ED91FC911197E80FF11D15
S1130460808116969C911697892716968C931697D9
S113047016C018961C921897ED91FC911197E80FED
S1130480F11D908116968C911697981308C081E0FF
S11304901A968C931A9703C018961C921897129662
S11304A08C9112978F5F15969C91159789231296BC
S11304B08C93129712968C91129728132ECF08952D
S11304C00F931F93CF93DF93EB01DC01ED91FC912C
S11304D0119714968C91E80FF11D6081603F31F003
S11304E0613F91F0633A09F05AC01DC042E060EFE9
S11304F0CE010E94EB006DE0CE010E9449016D81A6
S1130500CE010E94490157C04CE061EFCE010E9428
S1130510EB0062E071E0CE010E945B016D81CE01CF
S11305200E94490148C02091120130911301409169
S11305301401509115016091160170911701809179
S11305401801909119010E948F00609339027093F1
S11305503A0280933B0290933C0245E063EACE0169
S11305600E94EB0009E312E0F8016081CE010E94D1
S11305704901D80111966C91CE010E944901F801FC
S11305806281CE010E944901D80113966C91CE017B
S11305900E9449016D81CE010E9449010CC042E0D4
S11305A0CE010E94EB006FEFCE010E9449016D81E4
S11305B0CE010E944901DF91CF911F910F910895BF
S11305C0FC017583648316820895789460911B01FD
S11305D070911C0180911D0190911E01F894089561
S11305E00F931F93CF93DF93EC018E8181110AC087
S11305F081E08E830E94E502688379838A839B83EA
S113060080E019C00E94E502088119812A813B819A
S1130610AB01BC01401B510B620B730B8C819D81A0
S1130620A0E0B0E0481759076A077B0718F01E825C
S113063081E001C080E0DF91CF911F910F91089577
S11306400F931F93CF93DF93EC018B018A8588234B
S113065021F01A86CE010E94600280E392E00E949B
S1130660F002882349F08885882331F089858150F8
S11306708987811101C018869A818B81981719F096
S1130680CE010E948801D80112968C91129713967C
S11306909C9113978917D1F09091C00095FF16C0D3
S11306A0ED91FC91119791E0980F12969C931297FB
S11306B0E80FF11D80818093C60014968C911497E5
S11306C012969C911297892312968C93DF91CF9165
S11306D01F910F9108958EEF8093C00088E9809355
S11306E0C10086E08093C20080E18093C400109230
S11306F0C500089582E084BD93E095BD16BC97E0E3
S113070095BB99EF97BD80936E0008951092850074
S1130710109284001092800082EC8093810084E225
S113072080936F0086B386BB089580910101811187
S113073008C080913E03826080933E038AE08093E8
S11307400101089580910001811108C080913E0348
S1130750816080933E038AE08093000180913E0390
S113076081FF0FC08091000181508093000180912E
S11307703E038D7F80933E0380913E038E7F809362
S11307803E0308951F920F920FB60F9211248F9378
S11307909F93AF93BF93EF93FF93EFE1F2E0A081B8
S11307A0B181838191E0980F9383A80FB11D80914B
S11307B0C6008C939581838189238383FF91EF9174
S11307C0BF91AF919F918F910F900FBE0F901F908B
S11307D018951F920F920FB60F9211248F939F9327
S11307E0AF93BF9380911B0190911C01A0911D01B7
S11307F0B0911E010196A11DB11D80931B01909320
S11308001C01A0931D01B0931E0180910101815030
S113081080930101BF91AF919F918F910F900FBE73
S11308200F901F9018951F920F920FB60F921124DC
S11308308F9381E080933D028F910F900FBE0F90B4
S11308401F9018951F920F920FB60F9211248F9339
S11308509F93AF93BF938091810086FF11C082E084
S113086080933D028091860090918700A0E0B0E0E3
S11308708093160190931701A0931801B093190166
S113088080918100BF91AF919F918F910F900FBE86
S11308900F901F901895F894EFE1F2E08FE191E04A
S11308A0918380831282138210868FEF8583128650
S11308B0EAE2F2E02EE332E03183208312821382F3
S11308C0848310923E0310921B0110921C0110921B
S11308D01D0110921E0184B1806284B984B18260CA
S11308E084B985B18F7D85B985B18D7F85B90E9425
S11308F07A030E9486030E946B030E945A006AE0F6
S113090070E080E392E00E94E00278940E949503F4
S11309100E94A2036EE373E081EB90E00E94650005
S11309206AE272E08FE192E00E942003EFCFEE0FC3
S1110930FF1F0590F491E02D0994F894FFCF79
S113093E0A0A45583130303932337630310A0000E4
S9030000FC
